S015000052656D6F7465436F6E74726F6C2E73726563C2
S113000045C0000060C000005EC000005CC000008D
S11300105AC0000058C0000056C0000054C0000080
S113002052C0000050C000004EC000004CC0000090
S11300304AC00000C0C0000046C0000044C0000028
S113004042C0000040C000003EC000003CC00000B0
S11300503AC0000038C0000036C0000034C00000C0
S113006032C0000030C000002EC000002CC00000D0
S11300702AC0000028C0000026C0000024C00000E0
S113008022C0000020C000001EC0000011241FBEBA
S1130090CFEFD0E4DEBFCDBF11E0A0E0B1E0EAEEE7
S11300A0F4E000E00BBF02C007900D92A830B10746
S11300B0D9F721E0A8E0B1E001C01D92AE30B2074B
S11300C0E1F75ED110C29CCF181619065CF00895B2
S11300D0000021503109E1F74F5F5F4F481759077E
S11300E029F4089540E050E077E063E0272F362FAD
S11300F0EFCF5E9888B95F9A00005F9882E090E045
S1130100E3CF0895813118F48158F3CF08958155D0
S1130110F0CF089584E690E0D7DF88E3EADF86E055
S1130120E8DF8FE0E6DF81E0E4DF8AE090E0CCCF37
S113013008955E9A88B95F9A00005F9881E090E024
S1130140C3CF08951F93CF93DF93FB01908199232D
S113015051F0EB0111E0180FD5DF8991EADF812F0F
S113016098819111F7CFDF91CF911F9108958BE082
S1130170809381008DE790E09093890080938800BC
S113018082E080936F001092850010928400809129
S1130190040190910501A0910601B091070180939B
S11301A0090190930A01A0930B01B0930C018FB73E
S11301B080688FBF08951F920F920FB60F9211247B
S11301C08F939F93AF93BF938091090190910A01FC
S11301D0A0910B01B0910C010197A109B109809381
S11301E0090190930A01A0930B01B0930C01892B90
S11301F08A2B8B2B99F481E080930D01809104016B
S113020090910501A0910601B09107018093090125
S113021090930A01A0930B01B0930C01BF91AF918D
S11302209F918F910F900FBE0F901F901895813062
S113023081F0E1ECF0E0808188618083E2ECF0E021
S113024080818660808383E38093C4001092C5001C
S11302500895E9ECF0E0808188618083EAECF0E0C5
S113026080818660808383E38093CC001092CD00EC
S11302700895813029F48091C800882384F008957A
S11302808091C0008823ACF4A6ECB0E0E0ECF0E090
S11302908C918093080180818823D4F30895AEEC77
S11302A0B0E0E8ECF0E08C91809308018081882331
S11302B0D4F30895613041F0E0ECF0E0908195FFD3
S11302C0FDCF8093C6000895E8ECF0E0908195FF9F
S11302D0FDCF8093CE000895ECE7F0E08081806448
S11302E08083EAE7F0E08081876880830895ECE703
S11302F0F0E090818770987F892B8083EAE7F0E0B3
S1130300808180648083808186FDFDCF8091780028
S11303109091790008950F931F93CF93DF93CDB7F6
S1130320DEB7A8970FB6F894DEBF0FBECDBF8B0122
S11303304AE050E0BE016F5F7F4F98D0BC0181E07E
S113034001DF4AE050E0BE016B5E7F4FC8018ED0F2
S1130350BC0181E1F7DEA8960FB6F894DEBF0FBEAC
S1130360CDBFDF91CF911F910F9108959091C0005F
S113037095FF04C09BB160E09DCF08958BB10895B3
S113038011B88FEF82B984B915B887B918B88AB98A
S11303901BB8EDDE8AE090E0A0E0B0E080930401B9
S11303A090930501A0930601B0930701809309017E
S11303B090930A01A0930B01B0930C018DDFAADE88
S11303C080E035DF80E055DF0F2EF5E0DF2EF02DE5
S11303D00F2EFAE0CF2EF02D0F2EF9E0BF2EF02DC8
S11303E00F2EF6E0AF2EF02D0F2EF0ECEF2EF12CA9
S11303F0F02D81E087DE80E07ADFEC0181E077DFB9
S1130400D250BC0172508B01CE0185DF20910201D4
S113041030910301021713078CF080910001909131
S1130420010180179107D4F0C217D307DCF08C17B1
S11304309D0784F015B880E099DF03C0D5B88D2DF1
S113044095DFF701808190910D019923E1F31092DA
S11304500D01CFCFA5B88A2D89DFF3CFC5B88C2D78
S113046085DFEFCFB5B88B2D81DFEBCF453251055A
S113047018F4423008F004C0FB011082CB01089547
S1130480BB274A3031F4992322F4BDE2909581953B
S11304909F4F01C0BB27FB015527AA27880F991F2F
S11304A0AA1FA41710F0A41B83955051B9F7A05D9F
S11304B0AA3308F0A95DA193009779F7B111B1931C
S11304C01192CB0100C0DC01FC01672F71917723ED
S11304D0E1F7329704C07C916D9370836291AE17FB
S10D04E0BF07C8F30895F894FFCF96
S10B04EA3200CEFF0100000006
S9030000FC
