S00B00004361722E7372656303
S113000045C0000060C000005EC000005CC000008D
S11300105AC0000058C0000056C0000054C0000080
S113002052C0000050C000004EC000004CC0000090
S11300304AC000006DC0000046C0000044C000007B
S113004042C0000040C000003EC000003CC00000B0
S11300503AC0000038C0000036C0000034C00000C0
S113006032C0000030C000002EC000002CC00000D0
S11300702AC0000028C0000026C0000024C00000E0
S113008022C0000020C000001EC0000011241FBEBA
S1130090CFEFD0E4DEBFCDBF11E0A0E0B1E0ECE9EA
S11300A0F2E000E00BBF02C007900D92A430B1074C
S11300B0D9F721E0A4E0B1E001C01D92AA30B20753
S11300C0E1F7B7D0E9C09CCF8BE0809381008DE746
S11300D090E0909389008093880082E080936F0081
S11300E0109285001092840080910001909101018A
S11300F0A0910201B0910301809305019093060140
S1130100A0930701B09308018FB780688FBF08954B
S11301101F920F920FB60F9211248F939F93AF9358
S1130120BF938091050190910601A0910701B091C0
S113013008010197A109B109809305019093060173
S1130140A0930701B0930801892B8A2B8B2B99F478
S113015081E0809309018091000190910101A091B7
S11301600201B09103018093050190930601A093CD
S11301700701B0930801BF91AF919F918F910F90A8
S11301800FBE0F901F901895813081F0E1ECF0E0E4
S1130190808188618083E2ECF0E0808186608083E6
S11301A083E38093C4001092C5000895E9ECF0E065
S11301B0808188618083EAECF0E0808186608083BE
S11301C083E38093CC001092CD000895813029F40C
S11301D08091C800882384F008958091C00088230A
S11301E0ACF4A6ECB0E0E0ECF0E08C918093040178
S11301F080818823D4F30895AEECB0E0E8ECF0E01D
S11302008C918093040180818823D4F308958130F4
S113021041F0E0ECF0E080818823ECF78091C600A7
S11302200895E8ECF0E080818823ECF78091CE001B
S1130230089511B88FEF82B984B915B887B918B881
S11302408AB91BB841DF84E690E0A0E0B0E0809377
S1130250000190930101A0930201B09303018093E4
S1130260050190930601A0930701B093080180E073
S11302708BDF81E089DF80E0A9DFC0ECD0E08881FA
S113028088231CF480E0C3DF88B9809109018823A6
S10F0290E1F310920901F3CFF894FFCFC2
S107029C0100000059
S9030000FC
