S014000043533132304246696E616C322E7372656389
S113000045C00000A8C100005EC000005CC0000044
S11300105AC0000058C0000056C0000054C0000080
S113002052C0000050C000004EC000004CC0000090
S11300304AC0000049C0000046C0000044C000009F
S113004042C0000040C000003EC000003CC00000B0
S11300503AC0000038C0000036C0000034C00000C0
S113006032C0000030C000002EC000002CC00000D0
S11300702AC0000028C0000026C0000024C00000E0
S113008022C0000020C000001EC0000011241FBEBA
S1130090CFEFD0E4DEBFCDBF11E0A0E0B1E0E8EDEA
S11300A0F3E000E00BBF02C007900D92A430B1074B
S11300B0D9F721E0A4E0B1E001C01D92AC30B20751
S11300C0E1F769D187C19CCF1F920F920FB60F92AF
S11300D011248F939F93AF93BF93809107019091C5
S11300E00801A0910901B0910A010197A109B10980
S11300F08093070190930801A0930901B0930A012A
S1130100892B8A2B8B2B99F481E080930B018091AE
S1130110000190910101A0910201B091030180932B
S1130120070190930801A0930901B0930A01BF91BC
S1130130AF919F918F910F900FBE0F901F901895C4
S1130140E1E6F0E080E8808310820895519A1092ED
S1130150C50083E38093C40088E18093C1008EE0EE
S11301608093C200089584B18E6284B98CB5806591
S11301708CBD2A9A85B115B808958EBD0DB407FEBD
S1130180FDCF8EB50895209A08955298E9E6F0E0DF
S113019080818260808380818E7F8083E89A089545
S11301A0E1ECF0E08081806880830895CF92DF9253
S11301B0EF92FF920F931F93CF93DF93F82EE62EC7
S11301C06A01022FF89481E0F81202C080E2E80E7E
S11301D085E38A95F1F7000085B115B885E38A9522
S11301E0F1F700008E2DC9DF85E38A95F1F7000051
S11301F010E010161106FCF4C0E0D0E0F1100EC0BF
S113020080EAE81659F08FEFB8DFFE01EC5FFE4F8D
S1130210808385E38A95F1F7000009C0F601EC0FAD
S1130220FD1F8081AADF85E38A95F1F700002196FE
S1130230C017D10719F72A9A789484E091E0DF91E6
S1130240CF911F910F91FF90EF90DF90CF90089581
S11302500F931F93CF93DF9300D000D01F92CDB79D
S1130260DEB72FEF81EE94E0215080409040E1F71B
S113027000C0000011E0198321E0AE014F5F5F4F21
S113028061E081E093DF8FE2898321E0AE014F5F7B
S11302905F4F64E081E08ADF198321E0AE014F5FA4
S11302A05F4F62E081E082DF03E0098321E0AE0179
S11302B04F5F5F4F63E081E079DF198321E0AE0196
S11302C04F5F5F4F65E081E071DF87E0898321E064
S11302D0AE014F5F5F4F66E081E068DF12E1198392
S11302E01A831B831C831D8325E0AE014F5F5F4F80
S11302F06AE081E05BDF19831A831B831C831D83FF
S113030025E0AE014F5F5F4F60E181E04FDF09837D
S113031021E0AE014F5F5F4F61E181E047DF8EE195
S1130320898321E0AE014F5F5F4F60E081E03EDFF3
S11303302FEF81EE94E0215080409040E1F700C01F
S113034000000F900F900F900F900F90DF91CF91BE
S11303501F910F9108951F920F920FB60F921124BF
S11303602F938F939F93F89485B115B8289A2FEF04
S113037089E698E1215080409040E1F700C00000F8
S113038085B115B878949F918F912F910F900FBEDE
S11303900F901F90189511B88FEF82B99FEB94B905
S11303A090E495B987B918B88AB91BB8C9DECEDE0E
S11303B0DADEE9DEEADEF4DE4BDF289A2FEF83EDA6
S11303C090E3215080409040E1F700C0000085B1E7
S10B03D015B8FFCFF894FFCF2C
S10703D8010000001C
S9030000FC
