S01400004353313230422046696E616C2E737265639B
S113000045C000003EC200005EC000005CC00000AD
S11300105AC0000058C0000056C0000054C0000080
S113002052C0000050C000004EC000004CC0000090
S11300304AC00000C0C0000046C0000044C0000028
S113004042C0000040C000003EC000003CC00000B0
S11300503AC0000038C0000036C0000034C00000C0
S113006032C0000030C000002EC000002CC00000D0
S11300702AC0000028C0000026C0000024C00000E0
S113008022C0000020C000001EC0000011241FBEBA
S1130090CFEFD0E4DEBFCDBF11E0A0E0B1E0EEE6EB
S11300A0F6E000E00BBF02C007900D92A830B10744
S11300B0D9F721E0A8E0B1E001C01D92A031B20758
S11300C0E1F74CD2D2C29CCF181619065CF0089501
S11300D0000021503109E1F74F5F5F4F481759077E
S11300E029F4089540E050E077E063E0272F362FAD
S11300F0EFCF5E9888B95F9A00005F9882E090E045
S1130100E3CF0895813118F48158F3CF08958155D0
S1130110F0CF089584E690E0D7DF88E3EADF86E055
S1130120E8DF8FE0E6DF81E0E4DF8AE090E0CCCF37
S113013008955E9A88B95F9A00005F9881E090E024
S1130140C3CF08951F93CF93DF93FB01908199232D
S113015051F0EB0111E0180FD5DF8991EADF812F0F
S113016098819111F7CFDF91CF911F9108958BE082
S1130170809381008DE790E09093890080938800BC
S113018082E080936F001092850010928400809129
S1130190040190910501A0910601B091070180939B
S11301A00B0190930C01A0930D01B0930E018FB736
S11301B080688FBF08951F920F920FB60F9211247B
S11301C08F939F93AF93BF9380910B0190910C01F8
S11301D0A0910D01B0910E010197A109B10980937D
S11301E00B0190930C01A0930D01B0930E01892B88
S11301F08A2B8B2B99F481E080930F018091040169
S113020090910501A0910601B091070180930B0123
S113021090930C01A0930D01B0930E01BF91AF9187
S11302209F918F910F900FBE0F901F901895ECE740
S1130230F0E0808180648083EAE7F0E08081876871
S113024080830895ECE7F0E090818770987F892B94
S11302508083EAE7F0E0808180648083808186FD8A
S1130260FDCF80917800909179000895E1E6F0E067
S113027080E8808310820895519A1092C50083E328
S11302808093C40088E18093C1008EE08093C20013
S1130290089584B18E6284B98CB580658CBD2A9A28
S11302A085B115B808958EBD0DB407FEFDCF8EB58A
S11302B00895209A08955298E9E6F0E080818260DA
S11302C0808380818E7F8083E89A0895E1ECF0E05A
S11302D08081806880830895CF92DF92EF92FF92AD
S11302E00F931F93CF93DF93F82EE62E6A01022F0C
S11302F0F89481E0F81202C080E2E80E85E38A9562
S1130300F1F7000085B115B885E38A95F1F700008F
S11303108E2DC9DF85E38A95F1F7000010E01016F1
S11303201106FCF4C0E0D0E0F1100EC080EAE8163B
S113033059F08FEFB8DFFE01E85FFE4F808385E35D
S11303408A95F1F7000009C0F601EC0FFD1F8081CA
S1130350AADF85E38A95F1F700002196C017D1073B
S113036019F72A9A789488E091E0DF91CF911F9150
S11303700F91FF90EF90DF90CF9008950F931F930C
S1130380CF93DF9300D000D01F92CDB7DEB72FEF0D
S113039081EE94E0215080409040E1F700C00000DD
S11303A011E0198321E0AE014F5F5F4F61E081E00E
S11303B093DF8FE2898321E0AE014F5F5F4F64E0FA
S11303C081E08ADF198321E0AE014F5F5F4F62E075
S11303D081E082DF03E0098321E0AE014F5F5F4FDC
S11303E063E081E079DF198321E0AE014F5F5F4F65
S11303F065E081E071DF87E0898321E0AE014F5F32
S11304005F4F66E081E068DF12E119831A831B8382
S11304101C831D8325E0AE014F5F5F4F6AE081E0DE
S11304205BDF19831A831B831C831D8325E0AE01C4
S11304304F5F5F4F60E181E04FDF098321E0AE0150
S11304404F5F5F4F61E181E047DF8EE1898321E007
S1130450AE014F5F5F4F60E081E03EDF2FEF81EE42
S113046094E0215080409040E1F700C000000F90DC
S11304700F900F900F900F90DF91CF911F910F91DC
S113048008951F920F920FB60F9211242F938F93FA
S11304909F93F89485B115B8289A2FEF89E698E1CF
S11304A0215080409040E1F700C0000085B115B8AC
S11304B078949F918F912F910F900FBE0F901F9062
S11304C018950F931F93CF93DF93CDB7DEB7A897FB
S11304D00FB6F894DEBF0FBECDBF8B014AE050E0EB
S11304E0BE016F5F7F4F84D0BC0181E02BDE4AE008
S11304F050E0BE016B5E7F4FC8017AD0BC0181E140
S113050021DEA8960FB6F894DEBF0FBECDBFDF91F3
S1130510CF911F910F910895209102013091030111
S1130520621773077CF04091000150910101461756
S113053057075CF0821793075CF0481759075CF083
S113054015B8089585E585B908958AEA85B90895A9
S11305508AE585B9089585EA85B9089511B88FEFBC
S113056082B984B915B887B918B88AB91BB8FFDD40
S113057081E090E0A0E0B0E0809304019093050155
S1130580A0930601B093070180930B0190930C0193
S1130590A0930D01B0930E014ADEBCDD67DE6CDE74
S11305A078DE87DE88DE92DEE9DE289A2FEF83ED9F
S11305B090E3215080409040E1F700C0000085B1F5
S11305C015B881E09FDD80E03DDEEC0181E03ADE9C
S11305D0D2508C011250B801CE0173DFB801CE01A4
S11305E09BDF80910F018823E1F310920F01E9CF83
S11305F04532510518F4423008F004C0FB01108262
S1130600CB010895BB274A3031F4992322F4BDE28B
S1130610909581959F4F01C0BB27FB015527AA27C1
S1130620880F991FAA1FA41710F0A41B839550517B
S1130630B9F7A05DAA3308F0A95DA193009779F7F3
S1130640B111B1931192CB0100C0DC01FC01672F01
S113065071917723E1F7329704C07C916D93708395
S11106606291AE17BF07C8F30895F894FFCF58
S10B066E64009CFF0100000080
S9030000FC
