S01400004353313230422046696E616C2E737265639B
S113000045C0000060C000005EC000005CC000008D
S11300105AC0000058C0000056C0000054C0000080
S113002052C0000050C000004EC000004CC0000090
S11300304AC00000C0C0000046C0000044C0000028
S113004042C0000040C000003EC000003CC00000B0
S11300503AC0000038C0000036C0000034C00000C0
S113006032C0000030C000002EC000002CC00000D0
S11300702AC0000028C0000026C0000024C00000E0
S113008022C0000020C000001EC0000011241FBEBA
S1130090CFEFD0E4DEBFCDBF11E0A0E0B1E0E8ECEB
S11300A0F3E000E00BBF02C007900D92A430B1074B
S11300B0D9F721E0A4E0B1E001C01D92A930B20754
S11300C0E1F7FFD07FC19CCF181619065CF00895A4
S11300D0000021503109E1F74F5F5F4F481759077E
S11300E029F4089540E050E077E063E0272F362FAD
S11300F0EFCF5E9888B95F9A00005F9882E090E045
S1130100E3CF0895813118F48158F3CF08958155D0
S1130110F0CF089584E690E0D7DF88E3EADF86E055
S1130120E8DF8FE0E6DF81E0E4DF8AE090E0CCCF37
S113013008955E9A88B95F9A00005F9881E090E024
S1130140C3CF08951F93CF93DF93FB01908199232D
S113015051F0EB0111E0180FD5DF8991EADF812F0F
S113016098819111F7CFDF91CF911F9108958BE082
S1130170809381008DE790E09093890080938800BC
S113018082E080936F001092850010928400809129
S1130190000190910101A0910201B09103018093AB
S11301A0040190930501A0930601B09307018FB752
S11301B080688FBF08951F920F920FB60F9211247B
S11301C08F939F93AF93BF93809104019091050106
S11301D0A0910601B09107010197A109B10980938B
S11301E0040190930501A0930601B0930701892BA4
S11301F08A2B8B2B99F481E0809308018091000174
S113020090910101A0910201B09103018093040136
S113021090930501A0930601B0930701BF91AF919C
S11302209F918F910F900FBE0F901F901895ECE740
S1130230F0E0808180648083EAE7F0E08081876871
S113024080830895ECE7F0E090818770987F892B94
S11302508083EAE7F0E0808180648083808186FD8A
S1130260FDCF809178009091790008950F931F93AA
S1130270CF93DF93CDB7DEB7A8970FB6F894DEBF60
S11302800FBECDBF8B014AE050E0BE016F5F7F4FD0
S11302905CD0BC0181E056DF4AE050E0BE016B5EF9
S11302A07F4FC80152D0BC0181E14CDFA8960FB644
S11302B0F894DEBF0FBECDBFDF91CF911F910F9198
S11302C0089511B88FEF82B984B915B887B918B8F1
S11302D08AB91BB84CDF81E090E0A0E0B0E08093E5
S11302E0000190930101A0930201B0930301809354
S11302F0040190930501A0930601B093070197DFD1
S113030009DF81E0FFDE80E09DDF8C0181E09ADF80
S1130310EC01D250BE01C8019250A8DFCC398FEF56
S1130320D80720F481E085B91BB808C0C536D105CB
S113033020F015B881E08BB901C015B8809108018F
S11303408823E1F310920801DCCF4532510518F4FB
S1130350423008F004C0FB011082CB010895BB2792
S11303604A3031F4992322F4BDE2909581959F4F50
S113037001C0BB27FB015527AA27880F991FAA1F75
S1130380A41710F0A41B83955051B9F7A05DAA33AC
S113039008F0A95DA193009779F7B111B193119277
S11303A0CB0100C0DC01FC01672F71917723E1F7D9
S11303B0329704C07C916D9370836291AE17BF072E
S10B03C0C8F30895F894FFCF7F
S10703C8010000002C
S9030000FC
